{
  "_format": "hh-sol-artifact-1",
  "contractName": "BioSecure",
  "sourceName": "contracts/BioSecure.sol",
  "abi": [
    {
      "anonymous": false,
      "inputs": [
        {
          "indexed": true,
          "internalType": "address",
          "name": "patient",
          "type": "address"
        },
        {
          "indexed": false,
          "internalType": "string",
          "name": "ipfsHash",
          "type": "string"
        },
        {
          "indexed": false,
          "internalType": "uint256",
          "name": "timestamp",
          "type": "uint256"
        }
      ],
      "name": "RecordAdded",
      "type": "event"
    },
    {
      "inputs": [
        {
          "internalType": "string",
          "name": "_ipfsHash",
          "type": "string"
        },
        {
          "internalType": "string",
          "name": "_biometricKeyHash",
          "type": "string"
        }
      ],
      "name": "addRecord",
      "outputs": [],
      "stateMutability": "nonpayable",
      "type": "function"
    },
    {
      "inputs": [
        {
          "internalType": "address",
          "name": "_patient",
          "type": "address"
        }
      ],
      "name": "getRecords",
      "outputs": [
        {
          "components": [
            {
              "internalType": "string",
              "name": "ipfsHash",
              "type": "string"
            },
            {
              "internalType": "string",
              "name": "biometricKeyHash",
              "type": "string"
            },
            {
              "internalType": "uint256",
              "name": "timestamp",
              "type": "uint256"
            }
          ],
          "internalType": "struct BioSecure.Record[]",
          "name": "",
          "type": "tuple[]"
        }
      ],
      "stateMutability": "view",
      "type": "function"
    }
  ],
  "bytecode": "0x608060405234801561001057600080fd5b50610b2d806100206000396000f3fe608060405234801561001057600080fd5b50600436106100365760003560e01c8063a0076e841461003b578063c95962481461006b575b600080fd5b610055600480360381019061005091906103d2565b610087565b60405161006291906105c1565b60405180910390f35b61008560048036038101906100809190610718565b610252565b005b60606000808373ffffffffffffffffffffffffffffffffffffffff1673ffffffffffffffffffffffffffffffffffffffff168152602001908152602001600020805480602002602001604051908101604052809291908181526020016000905b82821015610247578382906000526020600020906003020160405180606001604052908160008201805461011a906107bf565b80601f0160208091040260200160405190810160405280929190818152602001828054610146906107bf565b80156101935780601f1061016857610100808354040283529160200191610193565b820191906000526020600020905b81548152906001019060200180831161017657829003601f168201915b505050505081526020016001820180546101ac906107bf565b80601f01602080910402602001604051908101604052809291908181526020018280546101d8906107bf565b80156102255780601f106101fa57610100808354040283529160200191610225565b820191906000526020600020905b81548152906001019060200180831161020857829003601f168201915b50505050508152602001600282015481525050815260200190600101906100e7565b505050509050919050565b6000803373ffffffffffffffffffffffffffffffffffffffff1673ffffffffffffffffffffffffffffffffffffffff168152602001908152602001600020604051806060016040528084815260200183815260200142815250908060018154018082558091505060019003906000526020600020906003020160009091909190915060008201518160000190816102e9919061099c565b5060208201518160010190816102ff919061099c565b506040820151816002015550503373ffffffffffffffffffffffffffffffffffffffff167f4b92a41aaac1d087148ec39a65a261cc6ac88ed7765dece5374bb3893fcfcf9e8342604051610354929190610ac7565b60405180910390a25050565b6000604051905090565b600080fd5b600080fd5b600073ffffffffffffffffffffffffffffffffffffffff82169050919050565b600061039f82610374565b9050919050565b6103af81610394565b81146103ba57600080fd5b50565b6000813590506103cc816103a6565b92915050565b6000602082840312156103e8576103e761036a565b5b60006103f6848285016103bd565b91505092915050565b600081519050919050565b600082825260208201905092915050565b6000819050602082019050919050565b600081519050919050565b600082825260208201905092915050565b60005b8381101561046557808201518184015260208101905061044a565b60008484015250505050565b6000601f19601f8301169050919050565b600061048d8261042b565b6104978185610436565b93506104a7818560208601610447565b6104b081610471565b840191505092915050565b6000819050919050565b6104ce816104bb565b82525050565b600060608301600083015184820360008601526104f18282610482565b9150506020830151848203602086015261050b8282610482565b915050604083015161052060408601826104c5565b508091505092915050565b600061053783836104d4565b905092915050565b6000602082019050919050565b6000610557826103ff565b610561818561040a565b9350836020820285016105738561041b565b8060005b858110156105af5784840389528151610590858261052b565b945061059b8361053f565b925060208a01995050600181019050610577565b50829750879550505050505092915050565b600060208201905081810360008301526105db818461054c565b905092915050565b600080fd5b600080fd5b7f4e487b7100000000000000000000000000000000000000000000000000000000600052604160045260246000fd5b61062582610471565b810181811067ffffffffffffffff82111715610644576106436105ed565b5b80604052505050565b6000610657610360565b9050610663828261061c565b919050565b600067ffffffffffffffff821115610683576106826105ed565b5b61068c82610471565b9050602081019050919050565b82818337600083830152505050565b60006106bb6106b684610668565b61064d565b9050828152602081018484840111156106d7576106d66105e8565b5b6106e2848285610699565b509392505050565b600082601f8301126106ff576106fe6105e3565b5b813561070f8482602086016106a8565b91505092915050565b6000806040838503121561072f5761072e61036a565b5b600083013567ffffffffffffffff81111561074d5761074c61036f565b5b610759858286016106ea565b925050602083013567ffffffffffffffff81111561077a5761077961036f565b5b610786858286016106ea565b9150509250929050565b7f4e487b7100000000000000000000000000000000000000000000000000000000600052602260045260246000fd5b600060028204905060018216806107d757607f821691505b6020821081036107ea576107e9610790565b5b50919050565b60008190508160005260206000209050919050565b60006020601f8301049050919050565b600082821b905092915050565b6000600883026108527fffffffffffffffffffffffffffffffffffffffffffffffffffffffffffffffff82610815565b61085c8683610815565b95508019841693508086168417925050509392505050565b6000819050919050565b600061089961089461088f846104bb565b610874565b6104bb565b9050919050565b6000819050919050565b6108b38361087e565b6108c76108bf826108a0565b848454610822565b825550505050565b600090565b6108dc6108cf565b6108e78184846108aa565b505050565b5b8181101561090b576109006000826108d4565b6001810190506108ed565b5050565b601f82111561095057610921816107f0565b61092a84610805565b81016020851015610939578190505b61094d61094585610805565b8301826108ec565b50505b505050565b600082821c905092915050565b600061097360001984600802610955565b1980831691505092915050565b600061098c8383610962565b9150826002028217905092915050565b6109a58261042b565b67ffffffffffffffff8111156109be576109bd6105ed565b5b6109c882546107bf565b6109d382828561090f565b600060209050601f831160018114610a0657600084156109f4578287015190505b6109fe8582610980565b865550610a66565b601f198416610a14866107f0565b60005b82811015610a3c57848901518255600182019150602085019450602081019050610a17565b86831015610a595784890151610a55601f891682610962565b8355505b6001600288020188555050505b505050505050565b600082825260208201905092915050565b6000610a8a8261042b565b610a948185610a6e565b9350610aa4818560208601610447565b610aad81610471565b840191505092915050565b610ac1816104bb565b82525050565b60006040820190508181036000830152610ae18185610a7f565b9050610af06020830184610ab8565b939250505056fea264697066735822122080411472143890ecebbfbc635588a73b4a4d428f3a794264bacc0170d8275caf64736f6c63430008130033",
  "linkReferences": {},
  "deployedLinkReferences": {}
}